{
  "_format": "hh-sol-artifact-1",
  "contractName": "Web3Bank",
  "sourceName": "contracts/Web3Bank.sol",
  "abi": [
    {
      "inputs": [
        {
          "internalType": "string",
          "name": "bankName",
          "type": "string"
        }
      ],
      "stateMutability": "nonpayable",
      "type": "constructor"
    },
    {
      "anonymous": false,
      "inputs": [
        {
          "indexed": false,
          "internalType": "bytes8",
          "name": "_accountSecret",
          "type": "bytes8"
        },
        {
          "indexed": false,
          "internalType": "string",
          "name": "msg",
          "type": "string"
        }
      ],
      "name": "announce",
      "type": "event"
    },
    {
      "stateMutability": "payable",
      "type": "fallback"
    },
    {
      "inputs": [
        {
          "internalType": "address",
          "name": "senderAcc",
          "type": "address"
        },
        {
          "internalType": "address",
          "name": "receiverAcc",
          "type": "address"
        },
        {
          "internalType": "uint256",
          "name": "_debitAmount",
          "type": "uint256"
        }
      ],
      "name": "OnetoOnetransferToMetamask",
      "outputs": [],
      "stateMutability": "payable",
      "type": "function"
    },
    {
      "inputs": [
        {
          "internalType": "address",
          "name": "senderAcc",
          "type": "address"
        },
        {
          "internalType": "address",
          "name": "receiverAcc",
          "type": "address"
        },
        {
          "internalType": "uint256",
          "name": "_debitAmount",
          "type": "uint256"
        }
      ],
      "name": "OnetoOnetransferToWeb3Account",
      "outputs": [],
      "stateMutability": "payable",
      "type": "function"
    },
    {
      "inputs": [
        {
          "internalType": "address",
          "name": "",
          "type": "address"
        }
      ],
      "name": "accounts",
      "outputs": [
        {
          "internalType": "string",
          "name": "bank",
          "type": "string"
        },
        {
          "internalType": "string",
          "name": "name",
          "type": "string"
        },
        {
          "internalType": "string",
          "name": "signature",
          "type": "string"
        },
        {
          "internalType": "address",
          "name": "walletAddress",
          "type": "address"
        },
        {
          "internalType": "uint256",
          "name": "totalBalance",
          "type": "uint256"
        },
        {
          "internalType": "bool",
          "name": "active",
          "type": "bool"
        },
        {
          "internalType": "bytes8",
          "name": "accountSecret",
          "type": "bytes8"
        }
      ],
      "stateMutability": "view",
      "type": "function"
    },
    {
      "inputs": [
        {
          "internalType": "address",
          "name": "accountWalletAddress",
          "type": "address"
        }
      ],
      "name": "applySmartCard",
      "outputs": [],
      "stateMutability": "nonpayable",
      "type": "function"
    },
    {
      "inputs": [],
      "name": "bankOwner",
      "outputs": [
        {
          "internalType": "address",
          "name": "",
          "type": "address"
        }
      ],
      "stateMutability": "view",
      "type": "function"
    },
    {
      "inputs": [
        {
          "internalType": "address",
          "name": "acc",
          "type": "address"
        }
      ],
      "name": "creaditAmount",
      "outputs": [],
      "stateMutability": "payable",
      "type": "function"
    },
    {
      "inputs": [
        {
          "internalType": "address",
          "name": "_acc",
          "type": "address"
        },
        {
          "internalType": "uint256",
          "name": "_debitAmount",
          "type": "uint256"
        }
      ],
      "name": "debitAmount",
      "outputs": [],
      "stateMutability": "payable",
      "type": "function"
    },
    {
      "inputs": [
        {
          "internalType": "address",
          "name": "_acc",
          "type": "address"
        }
      ],
      "name": "getAccountByAddress",
      "outputs": [
        {
          "components": [
            {
              "internalType": "string",
              "name": "bank",
              "type": "string"
            },
            {
              "internalType": "string",
              "name": "name",
              "type": "string"
            },
            {
              "internalType": "string",
              "name": "signature",
              "type": "string"
            },
            {
              "internalType": "address",
              "name": "walletAddress",
              "type": "address"
            },
            {
              "internalType": "uint256",
              "name": "totalBalance",
              "type": "uint256"
            },
            {
              "internalType": "bool",
              "name": "active",
              "type": "bool"
            },
            {
              "internalType": "bytes8",
              "name": "accountSecret",
              "type": "bytes8"
            }
          ],
          "internalType": "struct Account.UserAccount",
          "name": "",
          "type": "tuple"
        }
      ],
      "stateMutability": "view",
      "type": "function"
    },
    {
      "inputs": [],
      "name": "getBankName",
      "outputs": [
        {
          "internalType": "string",
          "name": "",
          "type": "string"
        }
      ],
      "stateMutability": "view",
      "type": "function"
    },
    {
      "inputs": [],
      "name": "getContractBalance",
      "outputs": [
        {
          "internalType": "uint256",
          "name": "",
          "type": "uint256"
        }
      ],
      "stateMutability": "view",
      "type": "function"
    },
    {
      "inputs": [
        {
          "internalType": "address",
          "name": "_acc",
          "type": "address"
        },
        {
          "internalType": "bytes8",
          "name": "_accountSecret",
          "type": "bytes8"
        }
      ],
      "name": "loginAccount",
      "outputs": [
        {
          "components": [
            {
              "internalType": "string",
              "name": "bank",
              "type": "string"
            },
            {
              "internalType": "string",
              "name": "name",
              "type": "string"
            },
            {
              "internalType": "string",
              "name": "signature",
              "type": "string"
            },
            {
              "internalType": "address",
              "name": "walletAddress",
              "type": "address"
            },
            {
              "internalType": "uint256",
              "name": "totalBalance",
              "type": "uint256"
            },
            {
              "internalType": "bool",
              "name": "active",
              "type": "bool"
            },
            {
              "internalType": "bytes8",
              "name": "accountSecret",
              "type": "bytes8"
            }
          ],
          "internalType": "struct Account.UserAccount",
          "name": "",
          "type": "tuple"
        }
      ],
      "stateMutability": "view",
      "type": "function"
    },
    {
      "inputs": [],
      "name": "name",
      "outputs": [
        {
          "internalType": "string",
          "name": "",
          "type": "string"
        }
      ],
      "stateMutability": "view",
      "type": "function"
    },
    {
      "inputs": [
        {
          "internalType": "address",
          "name": "_walletAddress",
          "type": "address"
        },
        {
          "internalType": "string",
          "name": "username",
          "type": "string"
        }
      ],
      "name": "openAccount",
      "outputs": [],
      "stateMutability": "payable",
      "type": "function"
    },
    {
      "stateMutability": "payable",
      "type": "receive"
    }
  ],
  "bytecode": "0x60806040523480156200001157600080fd5b50604051620053c5380380620053c5833981810160405281019062000037919062000226565b808060029081620000499190620004c2565b505033600460006101000a81548173ffffffffffffffffffffffffffffffffffffffff021916908373ffffffffffffffffffffffffffffffffffffffff16021790555050620005a9565b6000604051905090565b600080fd5b600080fd5b600080fd5b600080fd5b6000601f19601f8301169050919050565b7f4e487b7100000000000000000000000000000000000000000000000000000000600052604160045260246000fd5b620000fc82620000b1565b810181811067ffffffffffffffff821117156200011e576200011d620000c2565b5b80604052505050565b60006200013362000093565b9050620001418282620000f1565b919050565b600067ffffffffffffffff821115620001645762000163620000c2565b5b6200016f82620000b1565b9050602081019050919050565b60005b838110156200019c5780820151818401526020810190506200017f565b60008484015250505050565b6000620001bf620001b98462000146565b62000127565b905082815260208101848484011115620001de57620001dd620000ac565b5b620001eb8482856200017c565b509392505050565b600082601f8301126200020b576200020a620000a7565b5b81516200021d848260208601620001a8565b91505092915050565b6000602082840312156200023f576200023e6200009d565b5b600082015167ffffffffffffffff81111562000260576200025f620000a2565b5b6200026e84828501620001f3565b91505092915050565b600081519050919050565b7f4e487b7100000000000000000000000000000000000000000000000000000000600052602260045260246000fd5b60006002820490506001821680620002ca57607f821691505b602082108103620002e057620002df62000282565b5b50919050565b60008190508160005260206000209050919050565b60006020601f8301049050919050565b600082821b905092915050565b6000600883026200034a7fffffffffffffffffffffffffffffffffffffffffffffffffffffffffffffffff826200030b565b6200035686836200030b565b95508019841693508086168417925050509392505050565b6000819050919050565b6000819050919050565b6000620003a36200039d62000397846200036e565b62000378565b6200036e565b9050919050565b6000819050919050565b620003bf8362000382565b620003d7620003ce82620003aa565b84845462000318565b825550505050565b600090565b620003ee620003df565b620003fb818484620003b4565b505050565b5b81811015620004235762000417600082620003e4565b60018101905062000401565b5050565b601f82111562000472576200043c81620002e6565b6200044784620002fb565b8101602085101562000457578190505b6200046f6200046685620002fb565b83018262000400565b50505b505050565b600082821c905092915050565b6000620004976000198460080262000477565b1980831691505092915050565b6000620004b2838362000484565b9150826002028217905092915050565b620004cd8262000277565b67ffffffffffffffff811115620004e957620004e8620000c2565b5b620004f58254620002b1565b6200050282828562000427565b600060209050601f8311600181146200053a576000841562000525578287015190505b620005318582620004a4565b865550620005a1565b601f1984166200054a86620002e6565b60005b8281101562000574578489015182556001820191506020850194506020810190506200054d565b8683101562000594578489015162000590601f89168262000484565b8355505b6001600288020188555050505b505050505050565b614e0c80620005b96000396000f3fe6080604052600436106100c65760003560e01c8063990f51c01161007f578063d14799d111610059578063d14799d114610261578063e147aaa71461028a578063e2e56c21146102b5578063f2bd77eb146102d1576100cd565b8063990f51c0146101bc578063b04ddc2a146101f9578063b8e85fec14610224576100cd565b806302db92e8146100cf57806306fdde03146100eb5780634d195dc8146101165780635e5c06e2146101325780636f9fb98a146101755780639002dca7146101a0576100cd565b366100cd57005b005b6100e960048036038101906100e49190613c57565b6102ed565b005b3480156100f757600080fd5b506101006102fd565b60405161010d9190613d3a565b60405180910390f35b610130600480360381019061012b9190613c57565b61038b565b005b34801561013e57600080fd5b5061015960048036038101906101549190613d5c565b61039b565b60405161016c9796959493929190613dfd565b60405180910390f35b34801561018157600080fd5b5061018a6105af565b6040516101979190613e81565b60405180910390f35b6101ba60048036038101906101b59190613fd1565b6105be565b005b3480156101c857600080fd5b506101e360048036038101906101de9190614059565b61065e565b6040516101f091906141c9565b60405180910390f35b34801561020557600080fd5b5061020e61067e565b60405161021b9190613d3a565b60405180910390f35b34801561023057600080fd5b5061024b60048036038101906102469190613d5c565b610716565b60405161025891906141c9565b60405180910390f35b34801561026d57600080fd5b5061028860048036038101906102839190613d5c565b610734565b005b34801561029657600080fd5b5061029f61080a565b6040516102ac91906141eb565b60405180910390f35b6102cf60048036038101906102ca9190614206565b610830565b005b6102eb60048036038101906102e69190613d5c565b61083e565b005b6102f883838361084a565b505050565b6003805461030a90614275565b80601f016020809104026020016040519081016040528092919081815260200182805461033690614275565b80156103835780601f1061035857610100808354040283529160200191610383565b820191906000526020600020905b81548152906001019060200180831161036657829003601f168201915b505050505081565b610396838383610c88565b505050565b60006020528060005260406000206000915090508060000180546103be90614275565b80601f01602080910402602001604051908101604052809291908181526020018280546103ea90614275565b80156104375780601f1061040c57610100808354040283529160200191610437565b820191906000526020600020905b81548152906001019060200180831161041a57829003601f168201915b50505050509080600101805461044c90614275565b80601f016020809104026020016040519081016040528092919081815260200182805461047890614275565b80156104c55780601f1061049a576101008083540402835291602001916104c5565b820191906000526020600020905b8154815290600101906020018083116104a857829003601f168201915b5050505050908060020180546104da90614275565b80601f016020809104026020016040519081016040528092919081815260200182805461050690614275565b80156105535780601f1061052857610100808354040283529160200191610553565b820191906000526020600020905b81548152906001019060200180831161053657829003601f168201915b5050505050908060030160009054906101000a900473ffffffffffffffffffffffffffffffffffffffff16908060040154908060050160009054906101000a900460ff16908060050160019054906101000a900460c01b905087565b60006105b961102f565b905090565b6000600280546105cd90614275565b80601f01602080910402602001604051908101604052809291908181526020018280546105f990614275565b80156106465780601f1061061b57610100808354040283529160200191610646565b820191906000526020600020905b81548152906001019060200180831161062957829003601f168201915b50505050509050610658838284611037565b50505050565b610666613b3f565b6000610672848461159c565b90508091505092915050565b606060006002805461068f90614275565b80601f01602080910402602001604051908101604052809291908181526020018280546106bb90614275565b80156107085780601f106106dd57610100808354040283529160200191610708565b820191906000526020600020905b8154815290600101906020018083116106eb57829003601f168201915b505050505090508091505090565b61071e613b3f565b600061072983611f36565b905080915050919050565b610807816000808473ffffffffffffffffffffffffffffffffffffffff1673ffffffffffffffffffffffffffffffffffffffff168152602001908152602001600020600101805461078490614275565b80601f01602080910402602001604051908101604052809291908181526020018280546107b090614275565b80156107fd5780601f106107d2576101008083540402835291602001916107fd565b820191906000526020600020905b8154815290600101906020018083116107e057829003601f168201915b5050505050612212565b50565b600460009054906101000a900473ffffffffffffffffffffffffffffffffffffffff1681565b61083a828261259c565b5050565b610847816129c8565b50565b6000808373ffffffffffffffffffffffffffffffffffffffff1673ffffffffffffffffffffffffffffffffffffffff1681526020019081526020016000206040518060e00160405290816000820180546108a390614275565b80601f01602080910402602001604051908101604052809291908181526020018280546108cf90614275565b801561091c5780601f106108f15761010080835404028352916020019161091c565b820191906000526020600020905b8154815290600101906020018083116108ff57829003601f168201915b5050505050815260200160018201805461093590614275565b80601f016020809104026020016040519081016040528092919081815260200182805461096190614275565b80156109ae5780601f10610983576101008083540402835291602001916109ae565b820191906000526020600020905b81548152906001019060200180831161099157829003601f168201915b505050505081526020016002820180546109c790614275565b80601f01602080910402602001604051908101604052809291908181526020018280546109f390614275565b8015610a405780601f10610a1557610100808354040283529160200191610a40565b820191906000526020600020905b815481529060010190602001808311610a2357829003601f168201915b505050505081526020016003820160009054906101000a900473ffffffffffffffffffffffffffffffffffffffff1673ffffffffffffffffffffffffffffffffffffffff1673ffffffffffffffffffffffffffffffffffffffff168152602001600482015481526020016005820160009054906101000a900460ff161515151581526020016005820160019054906101000a900460c01b77ffffffffffffffffffffffffffffffffffffffffffffffff191677ffffffffffffffffffffffffffffffffffffffffffffffff191681525050828073ffffffffffffffffffffffffffffffffffffffff16826060015173ffffffffffffffffffffffffffffffffffffffff1614610b84576040517f08c379a0000000000000000000000000000000000000000000000000000000008152600401610b7b90614318565b60405180910390fd5b600115158260a00151151514610bcf576040517f08c379a0000000000000000000000000000000000000000000000000000000008152600401610bc6906143aa565b60405180910390fd5b6000610bdb8685612e22565b90508473ffffffffffffffffffffffffffffffffffffffff166108fc859081150290604051600060405180830381858888f19350505050158015610c23573d6000803e3d6000fd5b503073ffffffffffffffffffffffffffffffffffffffff166108fc8547610c4a91906143f9565b9081150290604051600060405180830381858888f19350505050158015610c75573d6000803e3d6000fd5b50610c8086826132a3565b505050505050565b6000808373ffffffffffffffffffffffffffffffffffffffff1673ffffffffffffffffffffffffffffffffffffffff1681526020019081526020016000206040518060e0016040529081600082018054610ce190614275565b80601f0160208091040260200160405190810160405280929190818152602001828054610d0d90614275565b8015610d5a5780601f10610d2f57610100808354040283529160200191610d5a565b820191906000526020600020905b815481529060010190602001808311610d3d57829003601f168201915b50505050508152602001600182018054610d7390614275565b80601f0160208091040260200160405190810160405280929190818152602001828054610d9f90614275565b8015610dec5780601f10610dc157610100808354040283529160200191610dec565b820191906000526020600020905b815481529060010190602001808311610dcf57829003601f168201915b50505050508152602001600282018054610e0590614275565b80601f0160208091040260200160405190810160405280929190818152602001828054610e3190614275565b8015610e7e5780601f10610e5357610100808354040283529160200191610e7e565b820191906000526020600020905b815481529060010190602001808311610e6157829003601f168201915b505050505081526020016003820160009054906101000a900473ffffffffffffffffffffffffffffffffffffffff1673ffffffffffffffffffffffffffffffffffffffff1673ffffffffffffffffffffffffffffffffffffffff168152602001600482015481526020016005820160009054906101000a900460ff161515151581526020016005820160019054906101000a900460c01b77ffffffffffffffffffffffffffffffffffffffffffffffff191677ffffffffffffffffffffffffffffffffffffffffffffffff191681525050828073ffffffffffffffffffffffffffffffffffffffff16826060015173ffffffffffffffffffffffffffffffffffffffff1614610fc2576040517f08c379a0000000000000000000000000000000000000000000000000000000008152600401610fb990614318565b60405180910390fd5b600115158260a0015115151461100d576040517f08c379a0000000000000000000000000000000000000000000000000000000008152600401611004906143aa565b60405180910390fd5b600061101986856132ed565b90506110278686868461376e565b505050505050565b600047905090565b60008060008573ffffffffffffffffffffffffffffffffffffffff1673ffffffffffffffffffffffffffffffffffffffff16815260200190815260200160002060030160009054906101000a900473ffffffffffffffffffffffffffffffffffffffff163373ffffffffffffffffffffffffffffffffffffffff168173ffffffffffffffffffffffffffffffffffffffff1603611109576040517f08c379a000000000000000000000000000000000000000000000000000000000815260040161110090614479565b60405180910390fd5b600a341161114c576040517f08c379a0000000000000000000000000000000000000000000000000000000008152600401611143906144e5565b60405180910390fd5b600073ffffffffffffffffffffffffffffffffffffffff168573ffffffffffffffffffffffffffffffffffffffff16141580156111b457503373ffffffffffffffffffffffffffffffffffffffff168573ffffffffffffffffffffffffffffffffffffffff16145b6111f3576040517f08c379a00000000000000000000000000000000000000000000000000000000081526004016111ea90614551565b60405180910390fd5b836000808773ffffffffffffffffffffffffffffffffffffffff1673ffffffffffffffffffffffffffffffffffffffff1681526020019081526020016000206000019081611241919061471d565b50826000808773ffffffffffffffffffffffffffffffffffffffff1673ffffffffffffffffffffffffffffffffffffffff1681526020019081526020016000206002019081611290919061471d565b50826000808773ffffffffffffffffffffffffffffffffffffffff1673ffffffffffffffffffffffffffffffffffffffff16815260200190815260200160002060010190816112df919061471d565b50846000808773ffffffffffffffffffffffffffffffffffffffff1673ffffffffffffffffffffffffffffffffffffffff16815260200190815260200160002060030160006101000a81548173ffffffffffffffffffffffffffffffffffffffff021916908373ffffffffffffffffffffffffffffffffffffffff160217905550346000808773ffffffffffffffffffffffffffffffffffffffff1673ffffffffffffffffffffffffffffffffffffffff168152602001908152602001600020600401546113ad91906147ef565b6000808773ffffffffffffffffffffffffffffffffffffffff1673ffffffffffffffffffffffffffffffffffffffff1681526020019081526020016000206004018190555060016000808773ffffffffffffffffffffffffffffffffffffffff1673ffffffffffffffffffffffffffffffffffffffff16815260200190815260200160002060050160006101000a81548160ff021916908315150217905550611456858461384c565b6000808773ffffffffffffffffffffffffffffffffffffffff1673ffffffffffffffffffffffffffffffffffffffff16815260200190815260200160002060050160016101000a81548167ffffffffffffffff021916908360c01c02179055506114be61388f565b7f79aea1f524bc53fc194005a861a3b3a0d8536038dfdc9e1f79a2756eb22f306b6000808773ffffffffffffffffffffffffffffffffffffffff1673ffffffffffffffffffffffffffffffffffffffff16815260200190815260200160002060050160019054906101000a900460c01b60405161153b9190614895565b60405180910390a16000808673ffffffffffffffffffffffffffffffffffffffff1673ffffffffffffffffffffffffffffffffffffffff16815260200190815260200160002060050160019054906101000a900460c01b9150509392505050565b6115a4613b3f565b6000808473ffffffffffffffffffffffffffffffffffffffff1673ffffffffffffffffffffffffffffffffffffffff1681526020019081526020016000206040518060e00160405290816000820180546115fd90614275565b80601f016020809104026020016040519081016040528092919081815260200182805461162990614275565b80156116765780601f1061164b57610100808354040283529160200191611676565b820191906000526020600020905b81548152906001019060200180831161165957829003601f168201915b5050505050815260200160018201805461168f90614275565b80601f01602080910402602001604051908101604052809291908181526020018280546116bb90614275565b80156117085780601f106116dd57610100808354040283529160200191611708565b820191906000526020600020905b8154815290600101906020018083116116eb57829003601f168201915b5050505050815260200160028201805461172190614275565b80601f016020809104026020016040519081016040528092919081815260200182805461174d90614275565b801561179a5780601f1061176f5761010080835404028352916020019161179a565b820191906000526020600020905b81548152906001019060200180831161177d57829003601f168201915b505050505081526020016003820160009054906101000a900473ffffffffffffffffffffffffffffffffffffffff1673ffffffffffffffffffffffffffffffffffffffff1673ffffffffffffffffffffffffffffffffffffffff168152602001600482015481526020016005820160009054906101000a900460ff161515151581526020016005820160019054906101000a900460c01b77ffffffffffffffffffffffffffffffffffffffffffffffff191677ffffffffffffffffffffffffffffffffffffffffffffffff19168152505082848177ffffffffffffffffffffffffffffffffffffffffffffffff19168360c0015177ffffffffffffffffffffffffffffffffffffffffffffffff19161480156118e557508073ffffffffffffffffffffffffffffffffffffffff16836060015173ffffffffffffffffffffffffffffffffffffffff16145b611924576040517f08c379a000000000000000000000000000000000000000000000000000000000815260040161191b90614935565b60405180910390fd5b6000808773ffffffffffffffffffffffffffffffffffffffff1673ffffffffffffffffffffffffffffffffffffffff1681526020019081526020016000206040518060e001604052908160008201805461197d90614275565b80601f01602080910402602001604051908101604052809291908181526020018280546119a990614275565b80156119f65780601f106119cb576101008083540402835291602001916119f6565b820191906000526020600020905b8154815290600101906020018083116119d957829003601f168201915b50505050508152602001600182018054611a0f90614275565b80601f0160208091040260200160405190810160405280929190818152602001828054611a3b90614275565b8015611a885780601f10611a5d57610100808354040283529160200191611a88565b820191906000526020600020905b815481529060010190602001808311611a6b57829003601f168201915b50505050508152602001600282018054611aa190614275565b80601f0160208091040260200160405190810160405280929190818152602001828054611acd90614275565b8015611b1a5780601f10611aef57610100808354040283529160200191611b1a565b820191906000526020600020905b815481529060010190602001808311611afd57829003601f168201915b505050505081526020016003820160009054906101000a900473ffffffffffffffffffffffffffffffffffffffff1673ffffffffffffffffffffffffffffffffffffffff1673ffffffffffffffffffffffffffffffffffffffff168152602001600482015481526020016005820160009054906101000a900460ff161515151581526020016005820160019054906101000a900460c01b77ffffffffffffffffffffffffffffffffffffffffffffffff191677ffffffffffffffffffffffffffffffffffffffffffffffff1916815250503373ffffffffffffffffffffffffffffffffffffffff16816060015173ffffffffffffffffffffffffffffffffffffffff1614611c5d576040517f08c379a0000000000000000000000000000000000000000000000000000000008152600401611c54906149a1565b60405180910390fd5b60008060008973ffffffffffffffffffffffffffffffffffffffff1673ffffffffffffffffffffffffffffffffffffffff1681526020019081526020016000206040518060e0016040529081600082018054611cb890614275565b80601f0160208091040260200160405190810160405280929190818152602001828054611ce490614275565b8015611d315780601f10611d0657610100808354040283529160200191611d31565b820191906000526020600020905b815481529060010190602001808311611d1457829003601f168201915b50505050508152602001600182018054611d4a90614275565b80601f0160208091040260200160405190810160405280929190818152602001828054611d7690614275565b8015611dc35780601f10611d9857610100808354040283529160200191611dc3565b820191906000526020600020905b815481529060010190602001808311611da657829003601f168201915b50505050508152602001600282018054611ddc90614275565b80601f0160208091040260200160405190810160405280929190818152602001828054611e0890614275565b8015611e555780601f10611e2a57610100808354040283529160200191611e55565b820191906000526020600020905b815481529060010190602001808311611e3857829003601f168201915b505050505081526020016003820160009054906101000a900473ffffffffffffffffffffffffffffffffffffffff1673ffffffffffffffffffffffffffffffffffffffff1673ffffffffffffffffffffffffffffffffffffffff168152602001600482015481526020016005820160009054906101000a900460ff161515151581526020016005820160019054906101000a900460c01b77ffffffffffffffffffffffffffffffffffffffffffffffff191677ffffffffffffffffffffffffffffffffffffffffffffffff1916815250509050809550505050505092915050565b611f3e613b3f565b60008060008473ffffffffffffffffffffffffffffffffffffffff1673ffffffffffffffffffffffffffffffffffffffff1681526020019081526020016000206040518060e0016040529081600082018054611f9990614275565b80601f0160208091040260200160405190810160405280929190818152602001828054611fc590614275565b80156120125780601f10611fe757610100808354040283529160200191612012565b820191906000526020600020905b815481529060010190602001808311611ff557829003601f168201915b5050505050815260200160018201805461202b90614275565b80601f016020809104026020016040519081016040528092919081815260200182805461205790614275565b80156120a45780601f10612079576101008083540402835291602001916120a4565b820191906000526020600020905b81548152906001019060200180831161208757829003601f168201915b505050505081526020016002820180546120bd90614275565b80601f01602080910402602001604051908101604052809291908181526020018280546120e990614275565b80156121365780601f1061210b57610100808354040283529160200191612136565b820191906000526020600020905b81548152906001019060200180831161211957829003601f168201915b505050505081526020016003820160009054906101000a900473ffffffffffffffffffffffffffffffffffffffff1673ffffffffffffffffffffffffffffffffffffffff1673ffffffffffffffffffffffffffffffffffffffff168152602001600482015481526020016005820160009054906101000a900460ff161515151581526020016005820160019054906101000a900460c01b77ffffffffffffffffffffffffffffffffffffffffffffffff191677ffffffffffffffffffffffffffffffffffffffffffffffff191681525050905080915050919050565b80600160008473ffffffffffffffffffffffffffffffffffffffff1673ffffffffffffffffffffffffffffffffffffffff1681526020019081526020016000206000019081612261919061471d565b5061226a6138d8565b600160008473ffffffffffffffffffffffffffffffffffffffff1673ffffffffffffffffffffffffffffffffffffffff16815260200190815260200160002060010160006101000a81548161ffff021916908361ffff1602179055506122ce6138f9565b600160008473ffffffffffffffffffffffffffffffffffffffff1673ffffffffffffffffffffffffffffffffffffffff16815260200190815260200160002060010160026101000a81548161ffff021916908361ffff160217905550612332613915565b600160008473ffffffffffffffffffffffffffffffffffffffff1673ffffffffffffffffffffffffffffffffffffffff16815260200190815260200160002060010160046101000a81548161ffff021916908361ffff16021790555060018060008473ffffffffffffffffffffffffffffffffffffffff1673ffffffffffffffffffffffffffffffffffffffff16815260200190815260200160002060010160066101000a81548160ff021916908315150217905550612552600160008473ffffffffffffffffffffffffffffffffffffffff1673ffffffffffffffffffffffffffffffffffffffff1681526020019081526020016000206040518060c001604052908160008201805461244590614275565b80601f016020809104026020016040519081016040528092919081815260200182805461247190614275565b80156124be5780601f10612493576101008083540402835291602001916124be565b820191906000526020600020905b8154815290600101906020018083116124a157829003601f168201915b505050505081526020016001820160009054906101000a900461ffff1661ffff1661ffff1681526020016001820160029054906101000a900461ffff1661ffff1661ffff1681526020016001820160049054906101000a900461ffff1661ffff1661ffff1681526020016001820160069054906101000a900460ff1615151515815260200160028201548152505083613931565b600160008473ffffffffffffffffffffffffffffffffffffffff1673ffffffffffffffffffffffffffffffffffffffff168152602001908152602001600020600201819055505050565b6000808373ffffffffffffffffffffffffffffffffffffffff1673ffffffffffffffffffffffffffffffffffffffff1681526020019081526020016000206040518060e00160405290816000820180546125f590614275565b80601f016020809104026020016040519081016040528092919081815260200182805461262190614275565b801561266e5780601f106126435761010080835404028352916020019161266e565b820191906000526020600020905b81548152906001019060200180831161265157829003601f168201915b5050505050815260200160018201805461268790614275565b80601f01602080910402602001604051908101604052809291908181526020018280546126b390614275565b80156127005780601f106126d557610100808354040283529160200191612700565b820191906000526020600020905b8154815290600101906020018083116126e357829003601f168201915b5050505050815260200160028201805461271990614275565b80601f016020809104026020016040519081016040528092919081815260200182805461274590614275565b80156127925780601f1061276757610100808354040283529160200191612792565b820191906000526020600020905b81548152906001019060200180831161277557829003601f168201915b505050505081526020016003820160009054906101000a900473ffffffffffffffffffffffffffffffffffffffff1673ffffffffffffffffffffffffffffffffffffffff1673ffffffffffffffffffffffffffffffffffffffff168152602001600482015481526020016005820160009054906101000a900460ff161515151581526020016005820160019054906101000a900460c01b77ffffffffffffffffffffffffffffffffffffffffffffffff191677ffffffffffffffffffffffffffffffffffffffffffffffff1916815250503373ffffffffffffffffffffffffffffffffffffffff16816060015173ffffffffffffffffffffffffffffffffffffffff16146128d5576040517f08c379a00000000000000000000000000000000000000000000000000000000081526004016128cc906149a1565b60405180910390fd5b60006128e18484613974565b90503073ffffffffffffffffffffffffffffffffffffffff166108fc844761290991906143f9565b9081150290604051600060405180830381858888f19350505050158015612934573d6000803e3d6000fd5b508373ffffffffffffffffffffffffffffffffffffffff166108fc849081150290604051600060405180830381858888f1935050505015801561297b573d6000803e3d6000fd5b50806000808673ffffffffffffffffffffffffffffffffffffffff1673ffffffffffffffffffffffffffffffffffffffff1681526020019081526020016000206004018190555050505050565b6000808273ffffffffffffffffffffffffffffffffffffffff1673ffffffffffffffffffffffffffffffffffffffff1681526020019081526020016000206040518060e0016040529081600082018054612a2190614275565b80601f0160208091040260200160405190810160405280929190818152602001828054612a4d90614275565b8015612a9a5780601f10612a6f57610100808354040283529160200191612a9a565b820191906000526020600020905b815481529060010190602001808311612a7d57829003601f168201915b50505050508152602001600182018054612ab390614275565b80601f0160208091040260200160405190810160405280929190818152602001828054612adf90614275565b8015612b2c5780601f10612b0157610100808354040283529160200191612b2c565b820191906000526020600020905b815481529060010190602001808311612b0f57829003601f168201915b50505050508152602001600282018054612b4590614275565b80601f0160208091040260200160405190810160405280929190818152602001828054612b7190614275565b8015612bbe5780601f10612b9357610100808354040283529160200191612bbe565b820191906000526020600020905b815481529060010190602001808311612ba157829003601f168201915b505050505081526020016003820160009054906101000a900473ffffffffffffffffffffffffffffffffffffffff1673ffffffffffffffffffffffffffffffffffffffff1673ffffffffffffffffffffffffffffffffffffffff168152602001600482015481526020016005820160009054906101000a900460ff161515151581526020016005820160019054906101000a900460c01b77ffffffffffffffffffffffffffffffffffffffffffffffff191677ffffffffffffffffffffffffffffffffffffffffffffffff1916815250503373ffffffffffffffffffffffffffffffffffffffff16816060015173ffffffffffffffffffffffffffffffffffffffff1614612d01576040517f08c379a0000000000000000000000000000000000000000000000000000000008152600401612cf8906149a1565b60405180910390fd5b6014341015612d45576040517f08c379a0000000000000000000000000000000000000000000000000000000008152600401612d3c90614a33565b60405180910390fd5b3073ffffffffffffffffffffffffffffffffffffffff166108fc349081150290604051600060405180830381858888f19350505050158015612d8b573d6000803e3d6000fd5b50346000808473ffffffffffffffffffffffffffffffffffffffff1673ffffffffffffffffffffffffffffffffffffffff16815260200190815260200160002060040154612dd991906147ef565b6000808473ffffffffffffffffffffffffffffffffffffffff1673ffffffffffffffffffffffffffffffffffffffff168152602001908152602001600020600401819055505050565b60008060008473ffffffffffffffffffffffffffffffffffffffff1673ffffffffffffffffffffffffffffffffffffffff1681526020019081526020016000206040518060e0016040529081600082018054612e7d90614275565b80601f0160208091040260200160405190810160405280929190818152602001828054612ea990614275565b8015612ef65780601f10612ecb57610100808354040283529160200191612ef6565b820191906000526020600020905b815481529060010190602001808311612ed957829003601f168201915b50505050508152602001600182018054612f0f90614275565b80601f0160208091040260200160405190810160405280929190818152602001828054612f3b90614275565b8015612f885780601f10612f5d57610100808354040283529160200191612f88565b820191906000526020600020905b815481529060010190602001808311612f6b57829003601f168201915b50505050508152602001600282018054612fa190614275565b80601f0160208091040260200160405190810160405280929190818152602001828054612fcd90614275565b801561301a5780601f10612fef5761010080835404028352916020019161301a565b820191906000526020600020905b815481529060010190602001808311612ffd57829003601f168201915b505050505081526020016003820160009054906101000a900473ffffffffffffffffffffffffffffffffffffffff1673ffffffffffffffffffffffffffffffffffffffff1673ffffffffffffffffffffffffffffffffffffffff168152602001600482015481526020016005820160009054906101000a900460ff161515151581526020016005820160019054906101000a900460c01b77ffffffffffffffffffffffffffffffffffffffffffffffff191677ffffffffffffffffffffffffffffffffffffffffffffffff1916815250503373ffffffffffffffffffffffffffffffffffffffff16816060015173ffffffffffffffffffffffffffffffffffffffff161461315d576040517f08c379a0000000000000000000000000000000000000000000000000000000008152600401613154906149a1565b60405180910390fd5b6000808573ffffffffffffffffffffffffffffffffffffffff1673ffffffffffffffffffffffffffffffffffffffff1681526020019081526020016000206004015483600a81101580156131b95750674563918244f400008111155b6131f8576040517f08c379a00000000000000000000000000000000000000000000000000000000081526004016131ef90614aeb565b60405180910390fd5b804711801561320657508181105b613245576040517f08c379a000000000000000000000000000000000000000000000000000000000815260040161323c90614b7d565b60405180910390fd5b6000346000808973ffffffffffffffffffffffffffffffffffffffff1673ffffffffffffffffffffffffffffffffffffffff1681526020019081526020016000206004015461329491906143f9565b90508094505050505092915050565b806000808473ffffffffffffffffffffffffffffffffffffffff1673ffffffffffffffffffffffffffffffffffffffff168152602001908152602001600020600401819055505050565b60008060008473ffffffffffffffffffffffffffffffffffffffff1673ffffffffffffffffffffffffffffffffffffffff1681526020019081526020016000206040518060e001604052908160008201805461334890614275565b80601f016020809104026020016040519081016040528092919081815260200182805461337490614275565b80156133c15780601f10613396576101008083540402835291602001916133c1565b820191906000526020600020905b8154815290600101906020018083116133a457829003601f168201915b505050505081526020016001820180546133da90614275565b80601f016020809104026020016040519081016040528092919081815260200182805461340690614275565b80156134535780601f1061342857610100808354040283529160200191613453565b820191906000526020600020905b81548152906001019060200180831161343657829003601f168201915b5050505050815260200160028201805461346c90614275565b80601f016020809104026020016040519081016040528092919081815260200182805461349890614275565b80156134e55780601f106134ba576101008083540402835291602001916134e5565b820191906000526020600020905b8154815290600101906020018083116134c857829003601f168201915b505050505081526020016003820160009054906101000a900473ffffffffffffffffffffffffffffffffffffffff1673ffffffffffffffffffffffffffffffffffffffff1673ffffffffffffffffffffffffffffffffffffffff168152602001600482015481526020016005820160009054906101000a900460ff161515151581526020016005820160019054906101000a900460c01b77ffffffffffffffffffffffffffffffffffffffffffffffff191677ffffffffffffffffffffffffffffffffffffffffffffffff1916815250503373ffffffffffffffffffffffffffffffffffffffff16816060015173ffffffffffffffffffffffffffffffffffffffff1614613628576040517f08c379a000000000000000000000000000000000000000000000000000000000815260040161361f906149a1565b60405180910390fd5b6000808573ffffffffffffffffffffffffffffffffffffffff1673ffffffffffffffffffffffffffffffffffffffff1681526020019081526020016000206004015483600a81101580156136845750674563918244f400008111155b6136c3576040517f08c379a00000000000000000000000000000000000000000000000000000000081526004016136ba90614aeb565b60405180910390fd5b80471180156136d157508181105b613710576040517f08c379a000000000000000000000000000000000000000000000000000000000815260040161370790614b7d565b60405180910390fd5b6000856000808973ffffffffffffffffffffffffffffffffffffffff1673ffffffffffffffffffffffffffffffffffffffff1681526020019081526020016000206004015461375f91906143f9565b90508094505050505092915050565b806000808673ffffffffffffffffffffffffffffffffffffffff1673ffffffffffffffffffffffffffffffffffffffff16815260200190815260200160002060040181905550816000808573ffffffffffffffffffffffffffffffffffffffff1673ffffffffffffffffffffffffffffffffffffffff1681526020019081526020016000206004015461380191906147ef565b6000808573ffffffffffffffffffffffffffffffffffffffff1673ffffffffffffffffffffffffffffffffffffffff1681526020019081526020016000206004018190555050505050565b6000828260014361385d91906143f9565b426040516020016138719493929190614c42565b60405160208183030381529060405280519060200120905092915050565b3073ffffffffffffffffffffffffffffffffffffffff166108fc349081150290604051600060405180830381858888f193505050501580156138d5573d6000803e3d6000fd5b50565b6000662386f26fc100006138ea613abb565b6138f49190614cbb565b905090565b6000612710613906613abb565b6139109190614cbb565b905090565b60006103e8613922613abb565b61392c9190614cbb565b905090565b6000826020015183604001518460600151846040516020016139569493929190614d30565b60405160208183030381529060405280519060200120905092915050565b60008060008473ffffffffffffffffffffffffffffffffffffffff1673ffffffffffffffffffffffffffffffffffffffff1681526020019081526020016000206004015482600a81101580156139d25750674563918244f400008111155b613a11576040517f08c379a0000000000000000000000000000000000000000000000000000000008152600401613a0890614aeb565b60405180910390fd5b8047118015613a1f57508181105b613a5e576040517f08c379a0000000000000000000000000000000000000000000000000000000008152600401613a5590614b7d565b60405180910390fd5b6000846000808873ffffffffffffffffffffffffffffffffffffffff1673ffffffffffffffffffffffffffffffffffffffff16815260200190815260200160002060040154613aad91906143f9565b905080935050505092915050565b600080600143613acb91906143f9565b4233604051602001613adf93929190614d7e565b6040516020818303038152906040528051906020012060001c9050613b0381613b0c565b90508091505090565b600081604051602001613b1f9190614dbb565b6040516020818303038152906040528051906020012060001c9050919050565b6040518060e00160405280606081526020016060815260200160608152602001600073ffffffffffffffffffffffffffffffffffffffff16815260200160008152602001600015158152602001600077ffffffffffffffffffffffffffffffffffffffffffffffff191681525090565b6000604051905090565b600080fd5b600080fd5b600073ffffffffffffffffffffffffffffffffffffffff82169050919050565b6000613bee82613bc3565b9050919050565b613bfe81613be3565b8114613c0957600080fd5b50565b600081359050613c1b81613bf5565b92915050565b6000819050919050565b613c3481613c21565b8114613c3f57600080fd5b50565b600081359050613c5181613c2b565b92915050565b600080600060608486031215613c7057613c6f613bb9565b5b6000613c7e86828701613c0c565b9350506020613c8f86828701613c0c565b9250506040613ca086828701613c42565b9150509250925092565b600081519050919050565b600082825260208201905092915050565b60005b83811015613ce4578082015181840152602081019050613cc9565b60008484015250505050565b6000601f19601f8301169050919050565b6000613d0c82613caa565b613d168185613cb5565b9350613d26818560208601613cc6565b613d2f81613cf0565b840191505092915050565b60006020820190508181036000830152613d548184613d01565b905092915050565b600060208284031215613d7257613d71613bb9565b5b6000613d8084828501613c0c565b91505092915050565b613d9281613be3565b82525050565b613da181613c21565b82525050565b60008115159050919050565b613dbc81613da7565b82525050565b60007fffffffffffffffff00000000000000000000000000000000000000000000000082169050919050565b613df781613dc2565b82525050565b600060e0820190508181036000830152613e17818a613d01565b90508181036020830152613e2b8189613d01565b90508181036040830152613e3f8188613d01565b9050613e4e6060830187613d89565b613e5b6080830186613d98565b613e6860a0830185613db3565b613e7560c0830184613dee565b98975050505050505050565b6000602082019050613e966000830184613d98565b92915050565b600080fd5b600080fd5b7f4e487b7100000000000000000000000000000000000000000000000000000000600052604160045260246000fd5b613ede82613cf0565b810181811067ffffffffffffffff82111715613efd57613efc613ea6565b5b80604052505050565b6000613f10613baf565b9050613f1c8282613ed5565b919050565b600067ffffffffffffffff821115613f3c57613f3b613ea6565b5b613f4582613cf0565b9050602081019050919050565b82818337600083830152505050565b6000613f74613f6f84613f21565b613f06565b905082815260208101848484011115613f9057613f8f613ea1565b5b613f9b848285613f52565b509392505050565b600082601f830112613fb857613fb7613e9c565b5b8135613fc8848260208601613f61565b91505092915050565b60008060408385031215613fe857613fe7613bb9565b5b6000613ff685828601613c0c565b925050602083013567ffffffffffffffff81111561401757614016613bbe565b5b61402385828601613fa3565b9150509250929050565b61403681613dc2565b811461404157600080fd5b50565b6000813590506140538161402d565b92915050565b600080604083850312156140705761406f613bb9565b5b600061407e85828601613c0c565b925050602061408f85828601614044565b9150509250929050565b600082825260208201905092915050565b60006140b582613caa565b6140bf8185614099565b93506140cf818560208601613cc6565b6140d881613cf0565b840191505092915050565b6140ec81613be3565b82525050565b6140fb81613c21565b82525050565b61410a81613da7565b82525050565b61411981613dc2565b82525050565b600060e083016000830151848203600086015261413c82826140aa565b9150506020830151848203602086015261415682826140aa565b9150506040830151848203604086015261417082826140aa565b915050606083015161418560608601826140e3565b50608083015161419860808601826140f2565b5060a08301516141ab60a0860182614101565b5060c08301516141be60c0860182614110565b508091505092915050565b600060208201905081810360008301526141e3818461411f565b905092915050565b60006020820190506142006000830184613d89565b92915050565b6000806040838503121561421d5761421c613bb9565b5b600061422b85828601613c0c565b925050602061423c85828601613c42565b9150509250929050565b7f4e487b7100000000000000000000000000000000000000000000000000000000600052602260045260246000fd5b6000600282049050600182168061428d57607f821691505b6020821081036142a05761429f614246565b5b50919050565b7f5265636970656e7420646f206e6f742068617665206163636f756e74206f706560008201527f6e65640000000000000000000000000000000000000000000000000000000000602082015250565b6000614302602383613cb5565b915061430d826142a6565b604082019050919050565b60006020820190508181036000830152614331816142f5565b9050919050565b7f5265636970656e74206163636f756e74206973206e6f7420616374697665207260008201527f69676874206e6f77000000000000000000000000000000000000000000000000602082015250565b6000614394602883613cb5565b915061439f82614338565b604082019050919050565b600060208201905081810360008301526143c381614387565b9050919050565b7f4e487b7100000000000000000000000000000000000000000000000000000000600052601160045260246000fd5b600061440482613c21565b915061440f83613c21565b9250828203905081811115614427576144266143ca565b5b92915050565b7f4163636f756e7420697320616c72656164792065786973740000000000000000600082015250565b6000614463601883613cb5565b915061446e8261442d565b602082019050919050565b6000602082019050818103600083015261449281614456565b9050919050565b7f416d6f756e742073686f756c642062652067726561746572207468616e203230600082015250565b60006144cf602083613cb5565b91506144da82614499565b602082019050919050565b600060208201905081810360008301526144fe816144c2565b9050919050565b7f506c656173652070757420612077616c6c657420616464726573730000000000600082015250565b600061453b601b83613cb5565b915061454682614505565b602082019050919050565b6000602082019050818103600083015261456a8161452e565b9050919050565b60008190508160005260206000209050919050565b60006020601f8301049050919050565b600082821b905092915050565b6000600883026145d37fffffffffffffffffffffffffffffffffffffffffffffffffffffffffffffffff82614596565b6145dd8683614596565b95508019841693508086168417925050509392505050565b6000819050919050565b600061461a61461561461084613c21565b6145f5565b613c21565b9050919050565b6000819050919050565b614634836145ff565b61464861464082614621565b8484546145a3565b825550505050565b600090565b61465d614650565b61466881848461462b565b505050565b5b8181101561468c57614681600082614655565b60018101905061466e565b5050565b601f8211156146d1576146a281614571565b6146ab84614586565b810160208510156146ba578190505b6146ce6146c685614586565b83018261466d565b50505b505050565b600082821c905092915050565b60006146f4600019846008026146d6565b1980831691505092915050565b600061470d83836146e3565b9150826002028217905092915050565b61472682613caa565b67ffffffffffffffff81111561473f5761473e613ea6565b5b6147498254614275565b614754828285614690565b600060209050601f8311600181146147875760008415614775578287015190505b61477f8582614701565b8655506147e7565b601f19841661479586614571565b60005b828110156147bd57848901518255600182019150602085019450602081019050614798565b868310156147da57848901516147d6601f8916826146e3565b8355505b6001600288020188555050505b505050505050565b60006147fa82613c21565b915061480583613c21565b925082820190508082111561481d5761481c6143ca565b5b92915050565b7f596f7572206163636f756e74207365637265742c20646f206e6f74207368617260008201527f65207769746820616e796f6e6500000000000000000000000000000000000000602082015250565b600061487f602d83613cb5565b915061488a82614823565b604082019050919050565b60006040820190506148aa6000830184613dee565b81810360208301526148bb81614872565b905092915050565b7f596f7520686176652070757420696e76616c6964206163636f756e742073656360008201527f72657420616e642077616c6c6574416464726573730000000000000000000000602082015250565b600061491f603583613cb5565b915061492a826148c3565b604082019050919050565b6000602082019050818103600083015261494e81614912565b9050919050565b7f596f7520646f206e6f742068617665206163636f756e74206f70656e65640000600082015250565b600061498b601e83613cb5565b915061499682614955565b602082019050919050565b600060208201905081810360008301526149ba8161497e565b9050919050565b7f416d6f756e742061746c65617420323020776569206f72206d6f72652074686160008201527f6e20746861740000000000000000000000000000000000000000000000000000602082015250565b6000614a1d602683613cb5565b9150614a28826149c1565b604082019050919050565b60006020820190508181036000830152614a4c81614a10565b9050919050565b7f416d6f756e742061746c65617420313020776569206f72206d6f72652074686160008201527f6e207468617420616e642073686f756c64206e6f74206265206772656174657260208201527f207468616e203520657468657200000000000000000000000000000000000000604082015250565b6000614ad5604d83613cb5565b9150614ae082614a53565b606082019050919050565b60006020820190508181036000830152614b0481614ac8565b9050919050565b7f496e7075742062616c616e6365206d75737420626520736d616c6c657220746860008201527f616e20796f7572206163636f756e742062616c616e6365000000000000000000602082015250565b6000614b67603783613cb5565b9150614b7282614b0b565b604082019050919050565b60006020820190508181036000830152614b9681614b5a565b9050919050565b60008160601b9050919050565b6000614bb582614b9d565b9050919050565b6000614bc782614baa565b9050919050565b614bdf614bda82613be3565b614bbc565b82525050565b600081905092915050565b6000614bfb82613caa565b614c058185614be5565b9350614c15818560208601613cc6565b80840191505092915050565b6000819050919050565b614c3c614c3782613c21565b614c21565b82525050565b6000614c4e8287614bce565b601482019150614c5e8286614bf0565b9150614c6a8285614c2b565b602082019150614c7a8284614c2b565b60208201915081905095945050505050565b7f4e487b7100000000000000000000000000000000000000000000000000000000600052601260045260246000fd5b6000614cc682613c21565b9150614cd183613c21565b925082614ce157614ce0614c8c565b5b828206905092915050565b600061ffff82169050919050565b60008160f01b9050919050565b6000614d1282614cfa565b9050919050565b614d2a614d2582614cec565b614d07565b82525050565b6000614d3c8287614d19565b600282019150614d4c8286614d19565b600282019150614d5c8285614d19565b600282019150614d6c8284614bce565b60148201915081905095945050505050565b6000614d8a8286614c2b565b602082019150614d9a8285614c2b565b602082019150614daa8284614bce565b601482019150819050949350505050565b6000614dc78284614c2b565b6020820191508190509291505056fea26469706673582212201f68f2fcf9c2ca7237fb7434a2c05866e95030c5beb96e19a39f5e02a768dd5b64736f6c63430008130033",
  "linkReferences": {},
  "deployedLinkReferences": {}
}