{
  "_format": "hh-sol-artifact-1",
  "contractName": "Web3Bank",
  "sourceName": "contracts/Web3Bank.sol",
  "abi": [
    {
      "inputs": [
        {
          "internalType": "string",
          "name": "bankName",
          "type": "string"
        }
      ],
      "stateMutability": "nonpayable",
      "type": "constructor"
    },
    {
      "anonymous": false,
      "inputs": [
        {
          "indexed": false,
          "internalType": "bytes8",
          "name": "_accountSecret",
          "type": "bytes8"
        },
        {
          "indexed": false,
          "internalType": "string",
          "name": "msg",
          "type": "string"
        }
      ],
      "name": "announce",
      "type": "event"
    },
    {
      "stateMutability": "payable",
      "type": "fallback"
    },
    {
      "inputs": [
        {
          "internalType": "address",
          "name": "senderAcc",
          "type": "address"
        },
        {
          "internalType": "address",
          "name": "receiverAcc",
          "type": "address"
        },
        {
          "internalType": "uint256",
          "name": "_debitAmount",
          "type": "uint256"
        }
      ],
      "name": "OnetoOnetransferToMetamask",
      "outputs": [],
      "stateMutability": "payable",
      "type": "function"
    },
    {
      "inputs": [
        {
          "internalType": "address",
          "name": "senderAcc",
          "type": "address"
        },
        {
          "internalType": "address",
          "name": "receiverAcc",
          "type": "address"
        },
        {
          "internalType": "uint256",
          "name": "_debitAmount",
          "type": "uint256"
        }
      ],
      "name": "OnetoOnetransferToWeb3Account",
      "outputs": [],
      "stateMutability": "payable",
      "type": "function"
    },
    {
      "inputs": [
        {
          "internalType": "address",
          "name": "",
          "type": "address"
        }
      ],
      "name": "accounts",
      "outputs": [
        {
          "internalType": "string",
          "name": "bank",
          "type": "string"
        },
        {
          "internalType": "string",
          "name": "name",
          "type": "string"
        },
        {
          "internalType": "string",
          "name": "signature",
          "type": "string"
        },
        {
          "internalType": "address",
          "name": "walletAddress",
          "type": "address"
        },
        {
          "internalType": "uint256",
          "name": "totalBalance",
          "type": "uint256"
        },
        {
          "internalType": "bool",
          "name": "active",
          "type": "bool"
        },
        {
          "internalType": "bytes8",
          "name": "accountSecret",
          "type": "bytes8"
        }
      ],
      "stateMutability": "view",
      "type": "function"
    },
    {
      "inputs": [
        {
          "internalType": "address",
          "name": "accountWalletAddress",
          "type": "address"
        }
      ],
      "name": "applySmartCard",
      "outputs": [],
      "stateMutability": "nonpayable",
      "type": "function"
    },
    {
      "inputs": [],
      "name": "bankOwner",
      "outputs": [
        {
          "internalType": "address",
          "name": "",
          "type": "address"
        }
      ],
      "stateMutability": "view",
      "type": "function"
    },
    {
      "inputs": [
        {
          "internalType": "address",
          "name": "acc",
          "type": "address"
        }
      ],
      "name": "creaditAmount",
      "outputs": [],
      "stateMutability": "payable",
      "type": "function"
    },
    {
      "inputs": [
        {
          "internalType": "address",
          "name": "_acc",
          "type": "address"
        },
        {
          "internalType": "uint256",
          "name": "_debitAmount",
          "type": "uint256"
        }
      ],
      "name": "debitAmount",
      "outputs": [],
      "stateMutability": "payable",
      "type": "function"
    },
    {
      "inputs": [
        {
          "internalType": "address",
          "name": "_acc",
          "type": "address"
        }
      ],
      "name": "getAccountByAddress",
      "outputs": [
        {
          "components": [
            {
              "internalType": "string",
              "name": "bank",
              "type": "string"
            },
            {
              "internalType": "string",
              "name": "name",
              "type": "string"
            },
            {
              "internalType": "string",
              "name": "signature",
              "type": "string"
            },
            {
              "internalType": "address",
              "name": "walletAddress",
              "type": "address"
            },
            {
              "internalType": "uint256",
              "name": "totalBalance",
              "type": "uint256"
            },
            {
              "internalType": "bool",
              "name": "active",
              "type": "bool"
            },
            {
              "internalType": "bytes8",
              "name": "accountSecret",
              "type": "bytes8"
            }
          ],
          "internalType": "struct Account.UserAccount",
          "name": "",
          "type": "tuple"
        }
      ],
      "stateMutability": "view",
      "type": "function"
    },
    {
      "inputs": [],
      "name": "getBankName",
      "outputs": [
        {
          "internalType": "string",
          "name": "",
          "type": "string"
        }
      ],
      "stateMutability": "view",
      "type": "function"
    },
    {
      "inputs": [],
      "name": "getContractBalance",
      "outputs": [
        {
          "internalType": "uint256",
          "name": "",
          "type": "uint256"
        }
      ],
      "stateMutability": "view",
      "type": "function"
    },
    {
      "inputs": [
        {
          "internalType": "address",
          "name": "_acc",
          "type": "address"
        },
        {
          "internalType": "bytes8",
          "name": "_accountSecret",
          "type": "bytes8"
        }
      ],
      "name": "loginAccount",
      "outputs": [
        {
          "components": [
            {
              "internalType": "string",
              "name": "bank",
              "type": "string"
            },
            {
              "internalType": "string",
              "name": "name",
              "type": "string"
            },
            {
              "internalType": "string",
              "name": "signature",
              "type": "string"
            },
            {
              "internalType": "address",
              "name": "walletAddress",
              "type": "address"
            },
            {
              "internalType": "uint256",
              "name": "totalBalance",
              "type": "uint256"
            },
            {
              "internalType": "bool",
              "name": "active",
              "type": "bool"
            },
            {
              "internalType": "bytes8",
              "name": "accountSecret",
              "type": "bytes8"
            }
          ],
          "internalType": "struct Account.UserAccount",
          "name": "",
          "type": "tuple"
        }
      ],
      "stateMutability": "view",
      "type": "function"
    },
    {
      "inputs": [],
      "name": "name",
      "outputs": [
        {
          "internalType": "string",
          "name": "",
          "type": "string"
        }
      ],
      "stateMutability": "view",
      "type": "function"
    },
    {
      "inputs": [
        {
          "internalType": "address",
          "name": "_walletAddress",
          "type": "address"
        }
      ],
      "name": "openAccount",
      "outputs": [],
      "stateMutability": "payable",
      "type": "function"
    },
    {
      "stateMutability": "payable",
      "type": "receive"
    }
  ],
  "bytecode": "0x60806040523480156200001157600080fd5b506040516200528838038062005288833981810160405281019062000037919062000226565b808060029081620000499190620004c2565b505033600460006101000a81548173ffffffffffffffffffffffffffffffffffffffff021916908373ffffffffffffffffffffffffffffffffffffffff16021790555050620005a9565b6000604051905090565b600080fd5b600080fd5b600080fd5b600080fd5b6000601f19601f8301169050919050565b7f4e487b7100000000000000000000000000000000000000000000000000000000600052604160045260246000fd5b620000fc82620000b1565b810181811067ffffffffffffffff821117156200011e576200011d620000c2565b5b80604052505050565b60006200013362000093565b9050620001418282620000f1565b919050565b600067ffffffffffffffff821115620001645762000163620000c2565b5b6200016f82620000b1565b9050602081019050919050565b60005b838110156200019c5780820151818401526020810190506200017f565b60008484015250505050565b6000620001bf620001b98462000146565b62000127565b905082815260208101848484011115620001de57620001dd620000ac565b5b620001eb8482856200017c565b509392505050565b600082601f8301126200020b576200020a620000a7565b5b81516200021d848260208601620001a8565b91505092915050565b6000602082840312156200023f576200023e6200009d565b5b600082015167ffffffffffffffff81111562000260576200025f620000a2565b5b6200026e84828501620001f3565b91505092915050565b600081519050919050565b7f4e487b7100000000000000000000000000000000000000000000000000000000600052602260045260246000fd5b60006002820490506001821680620002ca57607f821691505b602082108103620002e057620002df62000282565b5b50919050565b60008190508160005260206000209050919050565b60006020601f8301049050919050565b600082821b905092915050565b6000600883026200034a7fffffffffffffffffffffffffffffffffffffffffffffffffffffffffffffffff826200030b565b6200035686836200030b565b95508019841693508086168417925050509392505050565b6000819050919050565b6000819050919050565b6000620003a36200039d62000397846200036e565b62000378565b6200036e565b9050919050565b6000819050919050565b620003bf8362000382565b620003d7620003ce82620003aa565b84845462000318565b825550505050565b600090565b620003ee620003df565b620003fb818484620003b4565b505050565b5b81811015620004235762000417600082620003e4565b60018101905062000401565b5050565b601f82111562000472576200043c81620002e6565b6200044784620002fb565b8101602085101562000457578190505b6200046f6200046685620002fb565b83018262000400565b50505b505050565b600082821c905092915050565b6000620004976000198460080262000477565b1980831691505092915050565b6000620004b2838362000484565b9150826002028217905092915050565b620004cd8262000277565b67ffffffffffffffff811115620004e957620004e8620000c2565b5b620004f58254620002b1565b6200050282828562000427565b600060209050601f8311600181146200053a576000841562000525578287015190505b620005318582620004a4565b865550620005a1565b601f1984166200054a86620002e6565b60005b8281101562000574578489015182556001820191506020850194506020810190506200054d565b8683101562000594578489015162000590601f89168262000484565b8355505b6001600288020188555050505b505050505050565b614ccf80620005b96000396000f3fe6080604052600436106100c65760003560e01c8063990f51c01161007f578063d14799d111610059578063d14799d114610261578063e147aaa71461028a578063e2e56c21146102b5578063f2bd77eb146102d1576100cd565b8063990f51c0146101bc578063b04ddc2a146101f9578063b8e85fec14610224576100cd565b80630272f3a3146100cf57806302db92e8146100eb57806306fdde03146101075780634d195dc8146101325780635e5c06e21461014e5780636f9fb98a14610191576100cd565b366100cd57005b005b6100e960048036038101906100e49190613c46565b6102ed565b005b61010560048036038101906101009190613ca9565b6103c1565b005b34801561011357600080fd5b5061011c6103d1565b6040516101299190613d8c565b60405180910390f35b61014c60048036038101906101479190613ca9565b61045f565b005b34801561015a57600080fd5b5061017560048036038101906101709190613c46565b61046f565b6040516101889796959493929190613e22565b60405180910390f35b34801561019d57600080fd5b506101a6610683565b6040516101b39190613ea6565b60405180910390f35b3480156101c857600080fd5b506101e360048036038101906101de9190613eed565b610692565b6040516101f0919061405d565b60405180910390f35b34801561020557600080fd5b5061020e6106b2565b60405161021b9190613d8c565b60405180910390f35b34801561023057600080fd5b5061024b60048036038101906102469190613c46565b61074a565b604051610258919061405d565b60405180910390f35b34801561026d57600080fd5b5061028860048036038101906102839190613c46565b610768565b005b34801561029657600080fd5b5061029f61083e565b6040516102ac919061407f565b60405180910390f35b6102cf60048036038101906102ca919061409a565b610864565b005b6102eb60048036038101906102e69190613c46565b610872565b005b6000600280546102fc90614109565b80601f016020809104026020016040519081016040528092919081815260200182805461032890614109565b80156103755780601f1061034a57610100808354040283529160200191610375565b820191906000526020600020905b81548152906001019060200180831161035857829003601f168201915b505050505090506103bc82826040518060400160405280600e81526020017f53756268616a69742047686f736800000000000000000000000000000000000081525061087e565b505050565b6103cc838383610de3565b505050565b600380546103de90614109565b80601f016020809104026020016040519081016040528092919081815260200182805461040a90614109565b80156104575780601f1061042c57610100808354040283529160200191610457565b820191906000526020600020905b81548152906001019060200180831161043a57829003601f168201915b505050505081565b61046a838383611221565b505050565b600060205280600052604060002060009150905080600001805461049290614109565b80601f01602080910402602001604051908101604052809291908181526020018280546104be90614109565b801561050b5780601f106104e05761010080835404028352916020019161050b565b820191906000526020600020905b8154815290600101906020018083116104ee57829003601f168201915b50505050509080600101805461052090614109565b80601f016020809104026020016040519081016040528092919081815260200182805461054c90614109565b80156105995780601f1061056e57610100808354040283529160200191610599565b820191906000526020600020905b81548152906001019060200180831161057c57829003601f168201915b5050505050908060020180546105ae90614109565b80601f01602080910402602001604051908101604052809291908181526020018280546105da90614109565b80156106275780601f106105fc57610100808354040283529160200191610627565b820191906000526020600020905b81548152906001019060200180831161060a57829003601f168201915b5050505050908060030160009054906101000a900473ffffffffffffffffffffffffffffffffffffffff16908060040154908060050160009054906101000a900460ff16908060050160019054906101000a900460c01b905087565b600061068d6115c8565b905090565b61069a613b73565b60006106a684846115d0565b90508091505092915050565b60606000600280546106c390614109565b80601f01602080910402602001604051908101604052809291908181526020018280546106ef90614109565b801561073c5780601f106107115761010080835404028352916020019161073c565b820191906000526020600020905b81548152906001019060200180831161071f57829003601f168201915b505050505090508091505090565b610752613b73565b600061075d83611f6a565b905080915050919050565b61083b816000808473ffffffffffffffffffffffffffffffffffffffff1673ffffffffffffffffffffffffffffffffffffffff16815260200190815260200160002060010180546107b890614109565b80601f01602080910402602001604051908101604052809291908181526020018280546107e490614109565b80156108315780601f1061080657610100808354040283529160200191610831565b820191906000526020600020905b81548152906001019060200180831161081457829003601f168201915b5050505050612246565b50565b600460009054906101000a900473ffffffffffffffffffffffffffffffffffffffff1681565b61086e82826125d0565b5050565b61087b816129fc565b50565b60008060008573ffffffffffffffffffffffffffffffffffffffff1673ffffffffffffffffffffffffffffffffffffffff16815260200190815260200160002060030160009054906101000a900473ffffffffffffffffffffffffffffffffffffffff163373ffffffffffffffffffffffffffffffffffffffff168173ffffffffffffffffffffffffffffffffffffffff1603610950576040517f08c379a000000000000000000000000000000000000000000000000000000000815260040161094790614186565b60405180910390fd5b600a3411610993576040517f08c379a000000000000000000000000000000000000000000000000000000000815260040161098a906141f2565b60405180910390fd5b600073ffffffffffffffffffffffffffffffffffffffff168573ffffffffffffffffffffffffffffffffffffffff16141580156109fb57503373ffffffffffffffffffffffffffffffffffffffff168573ffffffffffffffffffffffffffffffffffffffff16145b610a3a576040517f08c379a0000000000000000000000000000000000000000000000000000000008152600401610a319061425e565b60405180910390fd5b836000808773ffffffffffffffffffffffffffffffffffffffff1673ffffffffffffffffffffffffffffffffffffffff1681526020019081526020016000206000019081610a889190614459565b50826000808773ffffffffffffffffffffffffffffffffffffffff1673ffffffffffffffffffffffffffffffffffffffff1681526020019081526020016000206002019081610ad79190614459565b50826000808773ffffffffffffffffffffffffffffffffffffffff1673ffffffffffffffffffffffffffffffffffffffff1681526020019081526020016000206001019081610b269190614459565b50846000808773ffffffffffffffffffffffffffffffffffffffff1673ffffffffffffffffffffffffffffffffffffffff16815260200190815260200160002060030160006101000a81548173ffffffffffffffffffffffffffffffffffffffff021916908373ffffffffffffffffffffffffffffffffffffffff160217905550346000808773ffffffffffffffffffffffffffffffffffffffff1673ffffffffffffffffffffffffffffffffffffffff16815260200190815260200160002060040154610bf4919061455a565b6000808773ffffffffffffffffffffffffffffffffffffffff1673ffffffffffffffffffffffffffffffffffffffff1681526020019081526020016000206004018190555060016000808773ffffffffffffffffffffffffffffffffffffffff1673ffffffffffffffffffffffffffffffffffffffff16815260200190815260200160002060050160006101000a81548160ff021916908315150217905550610c9d8584612e56565b6000808773ffffffffffffffffffffffffffffffffffffffff1673ffffffffffffffffffffffffffffffffffffffff16815260200190815260200160002060050160016101000a81548167ffffffffffffffff021916908360c01c0217905550610d05612e99565b7f79aea1f524bc53fc194005a861a3b3a0d8536038dfdc9e1f79a2756eb22f306b6000808773ffffffffffffffffffffffffffffffffffffffff1673ffffffffffffffffffffffffffffffffffffffff16815260200190815260200160002060050160019054906101000a900460c01b604051610d829190614600565b60405180910390a16000808673ffffffffffffffffffffffffffffffffffffffff1673ffffffffffffffffffffffffffffffffffffffff16815260200190815260200160002060050160019054906101000a900460c01b9150509392505050565b6000808373ffffffffffffffffffffffffffffffffffffffff1673ffffffffffffffffffffffffffffffffffffffff1681526020019081526020016000206040518060e0016040529081600082018054610e3c90614109565b80601f0160208091040260200160405190810160405280929190818152602001828054610e6890614109565b8015610eb55780601f10610e8a57610100808354040283529160200191610eb5565b820191906000526020600020905b815481529060010190602001808311610e9857829003601f168201915b50505050508152602001600182018054610ece90614109565b80601f0160208091040260200160405190810160405280929190818152602001828054610efa90614109565b8015610f475780601f10610f1c57610100808354040283529160200191610f47565b820191906000526020600020905b815481529060010190602001808311610f2a57829003601f168201915b50505050508152602001600282018054610f6090614109565b80601f0160208091040260200160405190810160405280929190818152602001828054610f8c90614109565b8015610fd95780601f10610fae57610100808354040283529160200191610fd9565b820191906000526020600020905b815481529060010190602001808311610fbc57829003601f168201915b505050505081526020016003820160009054906101000a900473ffffffffffffffffffffffffffffffffffffffff1673ffffffffffffffffffffffffffffffffffffffff1673ffffffffffffffffffffffffffffffffffffffff168152602001600482015481526020016005820160009054906101000a900460ff161515151581526020016005820160019054906101000a900460c01b77ffffffffffffffffffffffffffffffffffffffffffffffff191677ffffffffffffffffffffffffffffffffffffffffffffffff191681525050828073ffffffffffffffffffffffffffffffffffffffff16826060015173ffffffffffffffffffffffffffffffffffffffff161461111d576040517f08c379a0000000000000000000000000000000000000000000000000000000008152600401611114906146a0565b60405180910390fd5b600115158260a00151151514611168576040517f08c379a000000000000000000000000000000000000000000000000000000000815260040161115f90614732565b60405180910390fd5b60006111748685612ee2565b90508473ffffffffffffffffffffffffffffffffffffffff166108fc859081150290604051600060405180830381858888f193505050501580156111bc573d6000803e3d6000fd5b503073ffffffffffffffffffffffffffffffffffffffff166108fc85476111e39190614752565b9081150290604051600060405180830381858888f1935050505015801561120e573d6000803e3d6000fd5b506112198682613363565b505050505050565b6000808373ffffffffffffffffffffffffffffffffffffffff1673ffffffffffffffffffffffffffffffffffffffff1681526020019081526020016000206040518060e001604052908160008201805461127a90614109565b80601f01602080910402602001604051908101604052809291908181526020018280546112a690614109565b80156112f35780601f106112c8576101008083540402835291602001916112f3565b820191906000526020600020905b8154815290600101906020018083116112d657829003601f168201915b5050505050815260200160018201805461130c90614109565b80601f016020809104026020016040519081016040528092919081815260200182805461133890614109565b80156113855780601f1061135a57610100808354040283529160200191611385565b820191906000526020600020905b81548152906001019060200180831161136857829003601f168201915b5050505050815260200160028201805461139e90614109565b80601f01602080910402602001604051908101604052809291908181526020018280546113ca90614109565b80156114175780601f106113ec57610100808354040283529160200191611417565b820191906000526020600020905b8154815290600101906020018083116113fa57829003601f168201915b505050505081526020016003820160009054906101000a900473ffffffffffffffffffffffffffffffffffffffff1673ffffffffffffffffffffffffffffffffffffffff1673ffffffffffffffffffffffffffffffffffffffff168152602001600482015481526020016005820160009054906101000a900460ff161515151581526020016005820160019054906101000a900460c01b77ffffffffffffffffffffffffffffffffffffffffffffffff191677ffffffffffffffffffffffffffffffffffffffffffffffff191681525050828073ffffffffffffffffffffffffffffffffffffffff16826060015173ffffffffffffffffffffffffffffffffffffffff161461155b576040517f08c379a0000000000000000000000000000000000000000000000000000000008152600401611552906146a0565b60405180910390fd5b600115158260a001511515146115a6576040517f08c379a000000000000000000000000000000000000000000000000000000000815260040161159d90614732565b60405180910390fd5b60006115b286856133ad565b90506115c08686868461382e565b505050505050565b600047905090565b6115d8613b73565b6000808473ffffffffffffffffffffffffffffffffffffffff1673ffffffffffffffffffffffffffffffffffffffff1681526020019081526020016000206040518060e001604052908160008201805461163190614109565b80601f016020809104026020016040519081016040528092919081815260200182805461165d90614109565b80156116aa5780601f1061167f576101008083540402835291602001916116aa565b820191906000526020600020905b81548152906001019060200180831161168d57829003601f168201915b505050505081526020016001820180546116c390614109565b80601f01602080910402602001604051908101604052809291908181526020018280546116ef90614109565b801561173c5780601f106117115761010080835404028352916020019161173c565b820191906000526020600020905b81548152906001019060200180831161171f57829003601f168201915b5050505050815260200160028201805461175590614109565b80601f016020809104026020016040519081016040528092919081815260200182805461178190614109565b80156117ce5780601f106117a3576101008083540402835291602001916117ce565b820191906000526020600020905b8154815290600101906020018083116117b157829003601f168201915b505050505081526020016003820160009054906101000a900473ffffffffffffffffffffffffffffffffffffffff1673ffffffffffffffffffffffffffffffffffffffff1673ffffffffffffffffffffffffffffffffffffffff168152602001600482015481526020016005820160009054906101000a900460ff161515151581526020016005820160019054906101000a900460c01b77ffffffffffffffffffffffffffffffffffffffffffffffff191677ffffffffffffffffffffffffffffffffffffffffffffffff19168152505082848177ffffffffffffffffffffffffffffffffffffffffffffffff19168360c0015177ffffffffffffffffffffffffffffffffffffffffffffffff191614801561191957508073ffffffffffffffffffffffffffffffffffffffff16836060015173ffffffffffffffffffffffffffffffffffffffff16145b611958576040517f08c379a000000000000000000000000000000000000000000000000000000000815260040161194f906147f8565b60405180910390fd5b6000808773ffffffffffffffffffffffffffffffffffffffff1673ffffffffffffffffffffffffffffffffffffffff1681526020019081526020016000206040518060e00160405290816000820180546119b190614109565b80601f01602080910402602001604051908101604052809291908181526020018280546119dd90614109565b8015611a2a5780601f106119ff57610100808354040283529160200191611a2a565b820191906000526020600020905b815481529060010190602001808311611a0d57829003601f168201915b50505050508152602001600182018054611a4390614109565b80601f0160208091040260200160405190810160405280929190818152602001828054611a6f90614109565b8015611abc5780601f10611a9157610100808354040283529160200191611abc565b820191906000526020600020905b815481529060010190602001808311611a9f57829003601f168201915b50505050508152602001600282018054611ad590614109565b80601f0160208091040260200160405190810160405280929190818152602001828054611b0190614109565b8015611b4e5780601f10611b2357610100808354040283529160200191611b4e565b820191906000526020600020905b815481529060010190602001808311611b3157829003601f168201915b505050505081526020016003820160009054906101000a900473ffffffffffffffffffffffffffffffffffffffff1673ffffffffffffffffffffffffffffffffffffffff1673ffffffffffffffffffffffffffffffffffffffff168152602001600482015481526020016005820160009054906101000a900460ff161515151581526020016005820160019054906101000a900460c01b77ffffffffffffffffffffffffffffffffffffffffffffffff191677ffffffffffffffffffffffffffffffffffffffffffffffff1916815250503373ffffffffffffffffffffffffffffffffffffffff16816060015173ffffffffffffffffffffffffffffffffffffffff1614611c91576040517f08c379a0000000000000000000000000000000000000000000000000000000008152600401611c8890614864565b60405180910390fd5b60008060008973ffffffffffffffffffffffffffffffffffffffff1673ffffffffffffffffffffffffffffffffffffffff1681526020019081526020016000206040518060e0016040529081600082018054611cec90614109565b80601f0160208091040260200160405190810160405280929190818152602001828054611d1890614109565b8015611d655780601f10611d3a57610100808354040283529160200191611d65565b820191906000526020600020905b815481529060010190602001808311611d4857829003601f168201915b50505050508152602001600182018054611d7e90614109565b80601f0160208091040260200160405190810160405280929190818152602001828054611daa90614109565b8015611df75780601f10611dcc57610100808354040283529160200191611df7565b820191906000526020600020905b815481529060010190602001808311611dda57829003601f168201915b50505050508152602001600282018054611e1090614109565b80601f0160208091040260200160405190810160405280929190818152602001828054611e3c90614109565b8015611e895780601f10611e5e57610100808354040283529160200191611e89565b820191906000526020600020905b815481529060010190602001808311611e6c57829003601f168201915b505050505081526020016003820160009054906101000a900473ffffffffffffffffffffffffffffffffffffffff1673ffffffffffffffffffffffffffffffffffffffff1673ffffffffffffffffffffffffffffffffffffffff168152602001600482015481526020016005820160009054906101000a900460ff161515151581526020016005820160019054906101000a900460c01b77ffffffffffffffffffffffffffffffffffffffffffffffff191677ffffffffffffffffffffffffffffffffffffffffffffffff1916815250509050809550505050505092915050565b611f72613b73565b60008060008473ffffffffffffffffffffffffffffffffffffffff1673ffffffffffffffffffffffffffffffffffffffff1681526020019081526020016000206040518060e0016040529081600082018054611fcd90614109565b80601f0160208091040260200160405190810160405280929190818152602001828054611ff990614109565b80156120465780601f1061201b57610100808354040283529160200191612046565b820191906000526020600020905b81548152906001019060200180831161202957829003601f168201915b5050505050815260200160018201805461205f90614109565b80601f016020809104026020016040519081016040528092919081815260200182805461208b90614109565b80156120d85780601f106120ad576101008083540402835291602001916120d8565b820191906000526020600020905b8154815290600101906020018083116120bb57829003601f168201915b505050505081526020016002820180546120f190614109565b80601f016020809104026020016040519081016040528092919081815260200182805461211d90614109565b801561216a5780601f1061213f5761010080835404028352916020019161216a565b820191906000526020600020905b81548152906001019060200180831161214d57829003601f168201915b505050505081526020016003820160009054906101000a900473ffffffffffffffffffffffffffffffffffffffff1673ffffffffffffffffffffffffffffffffffffffff1673ffffffffffffffffffffffffffffffffffffffff168152602001600482015481526020016005820160009054906101000a900460ff161515151581526020016005820160019054906101000a900460c01b77ffffffffffffffffffffffffffffffffffffffffffffffff191677ffffffffffffffffffffffffffffffffffffffffffffffff191681525050905080915050919050565b80600160008473ffffffffffffffffffffffffffffffffffffffff1673ffffffffffffffffffffffffffffffffffffffff16815260200190815260200160002060000190816122959190614459565b5061229e61390c565b600160008473ffffffffffffffffffffffffffffffffffffffff1673ffffffffffffffffffffffffffffffffffffffff16815260200190815260200160002060010160006101000a81548161ffff021916908361ffff16021790555061230261392d565b600160008473ffffffffffffffffffffffffffffffffffffffff1673ffffffffffffffffffffffffffffffffffffffff16815260200190815260200160002060010160026101000a81548161ffff021916908361ffff160217905550612366613949565b600160008473ffffffffffffffffffffffffffffffffffffffff1673ffffffffffffffffffffffffffffffffffffffff16815260200190815260200160002060010160046101000a81548161ffff021916908361ffff16021790555060018060008473ffffffffffffffffffffffffffffffffffffffff1673ffffffffffffffffffffffffffffffffffffffff16815260200190815260200160002060010160066101000a81548160ff021916908315150217905550612586600160008473ffffffffffffffffffffffffffffffffffffffff1673ffffffffffffffffffffffffffffffffffffffff1681526020019081526020016000206040518060c001604052908160008201805461247990614109565b80601f01602080910402602001604051908101604052809291908181526020018280546124a590614109565b80156124f25780601f106124c7576101008083540402835291602001916124f2565b820191906000526020600020905b8154815290600101906020018083116124d557829003601f168201915b505050505081526020016001820160009054906101000a900461ffff1661ffff1661ffff1681526020016001820160029054906101000a900461ffff1661ffff1661ffff1681526020016001820160049054906101000a900461ffff1661ffff1661ffff1681526020016001820160069054906101000a900460ff1615151515815260200160028201548152505083613965565b600160008473ffffffffffffffffffffffffffffffffffffffff1673ffffffffffffffffffffffffffffffffffffffff168152602001908152602001600020600201819055505050565b6000808373ffffffffffffffffffffffffffffffffffffffff1673ffffffffffffffffffffffffffffffffffffffff1681526020019081526020016000206040518060e001604052908160008201805461262990614109565b80601f016020809104026020016040519081016040528092919081815260200182805461265590614109565b80156126a25780601f10612677576101008083540402835291602001916126a2565b820191906000526020600020905b81548152906001019060200180831161268557829003601f168201915b505050505081526020016001820180546126bb90614109565b80601f01602080910402602001604051908101604052809291908181526020018280546126e790614109565b80156127345780601f1061270957610100808354040283529160200191612734565b820191906000526020600020905b81548152906001019060200180831161271757829003601f168201915b5050505050815260200160028201805461274d90614109565b80601f016020809104026020016040519081016040528092919081815260200182805461277990614109565b80156127c65780601f1061279b576101008083540402835291602001916127c6565b820191906000526020600020905b8154815290600101906020018083116127a957829003601f168201915b505050505081526020016003820160009054906101000a900473ffffffffffffffffffffffffffffffffffffffff1673ffffffffffffffffffffffffffffffffffffffff1673ffffffffffffffffffffffffffffffffffffffff168152602001600482015481526020016005820160009054906101000a900460ff161515151581526020016005820160019054906101000a900460c01b77ffffffffffffffffffffffffffffffffffffffffffffffff191677ffffffffffffffffffffffffffffffffffffffffffffffff1916815250503373ffffffffffffffffffffffffffffffffffffffff16816060015173ffffffffffffffffffffffffffffffffffffffff1614612909576040517f08c379a000000000000000000000000000000000000000000000000000000000815260040161290090614864565b60405180910390fd5b600061291584846139a8565b90503073ffffffffffffffffffffffffffffffffffffffff166108fc844761293d9190614752565b9081150290604051600060405180830381858888f19350505050158015612968573d6000803e3d6000fd5b508373ffffffffffffffffffffffffffffffffffffffff166108fc849081150290604051600060405180830381858888f193505050501580156129af573d6000803e3d6000fd5b50806000808673ffffffffffffffffffffffffffffffffffffffff1673ffffffffffffffffffffffffffffffffffffffff1681526020019081526020016000206004018190555050505050565b6000808273ffffffffffffffffffffffffffffffffffffffff1673ffffffffffffffffffffffffffffffffffffffff1681526020019081526020016000206040518060e0016040529081600082018054612a5590614109565b80601f0160208091040260200160405190810160405280929190818152602001828054612a8190614109565b8015612ace5780601f10612aa357610100808354040283529160200191612ace565b820191906000526020600020905b815481529060010190602001808311612ab157829003601f168201915b50505050508152602001600182018054612ae790614109565b80601f0160208091040260200160405190810160405280929190818152602001828054612b1390614109565b8015612b605780601f10612b3557610100808354040283529160200191612b60565b820191906000526020600020905b815481529060010190602001808311612b4357829003601f168201915b50505050508152602001600282018054612b7990614109565b80601f0160208091040260200160405190810160405280929190818152602001828054612ba590614109565b8015612bf25780601f10612bc757610100808354040283529160200191612bf2565b820191906000526020600020905b815481529060010190602001808311612bd557829003601f168201915b505050505081526020016003820160009054906101000a900473ffffffffffffffffffffffffffffffffffffffff1673ffffffffffffffffffffffffffffffffffffffff1673ffffffffffffffffffffffffffffffffffffffff168152602001600482015481526020016005820160009054906101000a900460ff161515151581526020016005820160019054906101000a900460c01b77ffffffffffffffffffffffffffffffffffffffffffffffff191677ffffffffffffffffffffffffffffffffffffffffffffffff1916815250503373ffffffffffffffffffffffffffffffffffffffff16816060015173ffffffffffffffffffffffffffffffffffffffff1614612d35576040517f08c379a0000000000000000000000000000000000000000000000000000000008152600401612d2c90614864565b60405180910390fd5b6014341015612d79576040517f08c379a0000000000000000000000000000000000000000000000000000000008152600401612d70906148f6565b60405180910390fd5b3073ffffffffffffffffffffffffffffffffffffffff166108fc349081150290604051600060405180830381858888f19350505050158015612dbf573d6000803e3d6000fd5b50346000808473ffffffffffffffffffffffffffffffffffffffff1673ffffffffffffffffffffffffffffffffffffffff16815260200190815260200160002060040154612e0d919061455a565b6000808473ffffffffffffffffffffffffffffffffffffffff1673ffffffffffffffffffffffffffffffffffffffff168152602001908152602001600020600401819055505050565b60008282600143612e679190614752565b42604051602001612e7b94939291906149bb565b60405160208183030381529060405280519060200120905092915050565b3073ffffffffffffffffffffffffffffffffffffffff166108fc349081150290604051600060405180830381858888f19350505050158015612edf573d6000803e3d6000fd5b50565b60008060008473ffffffffffffffffffffffffffffffffffffffff1673ffffffffffffffffffffffffffffffffffffffff1681526020019081526020016000206040518060e0016040529081600082018054612f3d90614109565b80601f0160208091040260200160405190810160405280929190818152602001828054612f6990614109565b8015612fb65780601f10612f8b57610100808354040283529160200191612fb6565b820191906000526020600020905b815481529060010190602001808311612f9957829003601f168201915b50505050508152602001600182018054612fcf90614109565b80601f0160208091040260200160405190810160405280929190818152602001828054612ffb90614109565b80156130485780601f1061301d57610100808354040283529160200191613048565b820191906000526020600020905b81548152906001019060200180831161302b57829003601f168201915b5050505050815260200160028201805461306190614109565b80601f016020809104026020016040519081016040528092919081815260200182805461308d90614109565b80156130da5780601f106130af576101008083540402835291602001916130da565b820191906000526020600020905b8154815290600101906020018083116130bd57829003601f168201915b505050505081526020016003820160009054906101000a900473ffffffffffffffffffffffffffffffffffffffff1673ffffffffffffffffffffffffffffffffffffffff1673ffffffffffffffffffffffffffffffffffffffff168152602001600482015481526020016005820160009054906101000a900460ff161515151581526020016005820160019054906101000a900460c01b77ffffffffffffffffffffffffffffffffffffffffffffffff191677ffffffffffffffffffffffffffffffffffffffffffffffff1916815250503373ffffffffffffffffffffffffffffffffffffffff16816060015173ffffffffffffffffffffffffffffffffffffffff161461321d576040517f08c379a000000000000000000000000000000000000000000000000000000000815260040161321490614864565b60405180910390fd5b6000808573ffffffffffffffffffffffffffffffffffffffff1673ffffffffffffffffffffffffffffffffffffffff1681526020019081526020016000206004015483600a81101580156132795750674563918244f400008111155b6132b8576040517f08c379a00000000000000000000000000000000000000000000000000000000081526004016132af90614a9d565b60405180910390fd5b80471180156132c657508181105b613305576040517f08c379a00000000000000000000000000000000000000000000000000000000081526004016132fc90614b2f565b60405180910390fd5b6000346000808973ffffffffffffffffffffffffffffffffffffffff1673ffffffffffffffffffffffffffffffffffffffff168152602001908152602001600020600401546133549190614752565b90508094505050505092915050565b806000808473ffffffffffffffffffffffffffffffffffffffff1673ffffffffffffffffffffffffffffffffffffffff168152602001908152602001600020600401819055505050565b60008060008473ffffffffffffffffffffffffffffffffffffffff1673ffffffffffffffffffffffffffffffffffffffff1681526020019081526020016000206040518060e001604052908160008201805461340890614109565b80601f016020809104026020016040519081016040528092919081815260200182805461343490614109565b80156134815780601f1061345657610100808354040283529160200191613481565b820191906000526020600020905b81548152906001019060200180831161346457829003601f168201915b5050505050815260200160018201805461349a90614109565b80601f01602080910402602001604051908101604052809291908181526020018280546134c690614109565b80156135135780601f106134e857610100808354040283529160200191613513565b820191906000526020600020905b8154815290600101906020018083116134f657829003601f168201915b5050505050815260200160028201805461352c90614109565b80601f016020809104026020016040519081016040528092919081815260200182805461355890614109565b80156135a55780601f1061357a576101008083540402835291602001916135a5565b820191906000526020600020905b81548152906001019060200180831161358857829003601f168201915b505050505081526020016003820160009054906101000a900473ffffffffffffffffffffffffffffffffffffffff1673ffffffffffffffffffffffffffffffffffffffff1673ffffffffffffffffffffffffffffffffffffffff168152602001600482015481526020016005820160009054906101000a900460ff161515151581526020016005820160019054906101000a900460c01b77ffffffffffffffffffffffffffffffffffffffffffffffff191677ffffffffffffffffffffffffffffffffffffffffffffffff1916815250503373ffffffffffffffffffffffffffffffffffffffff16816060015173ffffffffffffffffffffffffffffffffffffffff16146136e8576040517f08c379a00000000000000000000000000000000000000000000000000000000081526004016136df90614864565b60405180910390fd5b6000808573ffffffffffffffffffffffffffffffffffffffff1673ffffffffffffffffffffffffffffffffffffffff1681526020019081526020016000206004015483600a81101580156137445750674563918244f400008111155b613783576040517f08c379a000000000000000000000000000000000000000000000000000000000815260040161377a90614a9d565b60405180910390fd5b804711801561379157508181105b6137d0576040517f08c379a00000000000000000000000000000000000000000000000000000000081526004016137c790614b2f565b60405180910390fd5b6000856000808973ffffffffffffffffffffffffffffffffffffffff1673ffffffffffffffffffffffffffffffffffffffff1681526020019081526020016000206004015461381f9190614752565b90508094505050505092915050565b806000808673ffffffffffffffffffffffffffffffffffffffff1673ffffffffffffffffffffffffffffffffffffffff16815260200190815260200160002060040181905550816000808573ffffffffffffffffffffffffffffffffffffffff1673ffffffffffffffffffffffffffffffffffffffff168152602001908152602001600020600401546138c1919061455a565b6000808573ffffffffffffffffffffffffffffffffffffffff1673ffffffffffffffffffffffffffffffffffffffff1681526020019081526020016000206004018190555050505050565b6000662386f26fc1000061391e613aef565b6139289190614b7e565b905090565b600061271061393a613aef565b6139449190614b7e565b905090565b60006103e8613956613aef565b6139609190614b7e565b905090565b60008260200151836040015184606001518460405160200161398a9493929190614bf3565b60405160208183030381529060405280519060200120905092915050565b60008060008473ffffffffffffffffffffffffffffffffffffffff1673ffffffffffffffffffffffffffffffffffffffff1681526020019081526020016000206004015482600a8110158015613a065750674563918244f400008111155b613a45576040517f08c379a0000000000000000000000000000000000000000000000000000000008152600401613a3c90614a9d565b60405180910390fd5b8047118015613a5357508181105b613a92576040517f08c379a0000000000000000000000000000000000000000000000000000000008152600401613a8990614b2f565b60405180910390fd5b6000846000808873ffffffffffffffffffffffffffffffffffffffff1673ffffffffffffffffffffffffffffffffffffffff16815260200190815260200160002060040154613ae19190614752565b905080935050505092915050565b600080600143613aff9190614752565b4233604051602001613b1393929190614c41565b6040516020818303038152906040528051906020012060001c9050613b3781613b40565b90508091505090565b600081604051602001613b539190614c7e565b6040516020818303038152906040528051906020012060001c9050919050565b6040518060e00160405280606081526020016060815260200160608152602001600073ffffffffffffffffffffffffffffffffffffffff16815260200160008152602001600015158152602001600077ffffffffffffffffffffffffffffffffffffffffffffffff191681525090565b600080fd5b600073ffffffffffffffffffffffffffffffffffffffff82169050919050565b6000613c1382613be8565b9050919050565b613c2381613c08565b8114613c2e57600080fd5b50565b600081359050613c4081613c1a565b92915050565b600060208284031215613c5c57613c5b613be3565b5b6000613c6a84828501613c31565b91505092915050565b6000819050919050565b613c8681613c73565b8114613c9157600080fd5b50565b600081359050613ca381613c7d565b92915050565b600080600060608486031215613cc257613cc1613be3565b5b6000613cd086828701613c31565b9350506020613ce186828701613c31565b9250506040613cf286828701613c94565b9150509250925092565b600081519050919050565b600082825260208201905092915050565b60005b83811015613d36578082015181840152602081019050613d1b565b60008484015250505050565b6000601f19601f8301169050919050565b6000613d5e82613cfc565b613d688185613d07565b9350613d78818560208601613d18565b613d8181613d42565b840191505092915050565b60006020820190508181036000830152613da68184613d53565b905092915050565b613db781613c08565b82525050565b613dc681613c73565b82525050565b60008115159050919050565b613de181613dcc565b82525050565b60007fffffffffffffffff00000000000000000000000000000000000000000000000082169050919050565b613e1c81613de7565b82525050565b600060e0820190508181036000830152613e3c818a613d53565b90508181036020830152613e508189613d53565b90508181036040830152613e648188613d53565b9050613e736060830187613dae565b613e806080830186613dbd565b613e8d60a0830185613dd8565b613e9a60c0830184613e13565b98975050505050505050565b6000602082019050613ebb6000830184613dbd565b92915050565b613eca81613de7565b8114613ed557600080fd5b50565b600081359050613ee781613ec1565b92915050565b60008060408385031215613f0457613f03613be3565b5b6000613f1285828601613c31565b9250506020613f2385828601613ed8565b9150509250929050565b600082825260208201905092915050565b6000613f4982613cfc565b613f538185613f2d565b9350613f63818560208601613d18565b613f6c81613d42565b840191505092915050565b613f8081613c08565b82525050565b613f8f81613c73565b82525050565b613f9e81613dcc565b82525050565b613fad81613de7565b82525050565b600060e0830160008301518482036000860152613fd08282613f3e565b91505060208301518482036020860152613fea8282613f3e565b915050604083015184820360408601526140048282613f3e565b91505060608301516140196060860182613f77565b50608083015161402c6080860182613f86565b5060a083015161403f60a0860182613f95565b5060c083015161405260c0860182613fa4565b508091505092915050565b600060208201905081810360008301526140778184613fb3565b905092915050565b60006020820190506140946000830184613dae565b92915050565b600080604083850312156140b1576140b0613be3565b5b60006140bf85828601613c31565b92505060206140d085828601613c94565b9150509250929050565b7f4e487b7100000000000000000000000000000000000000000000000000000000600052602260045260246000fd5b6000600282049050600182168061412157607f821691505b602082108103614134576141336140da565b5b50919050565b7f4163636f756e7420697320616c72656164792065786973740000000000000000600082015250565b6000614170601883613d07565b915061417b8261413a565b602082019050919050565b6000602082019050818103600083015261419f81614163565b9050919050565b7f416d6f756e742073686f756c642062652067726561746572207468616e203230600082015250565b60006141dc602083613d07565b91506141e7826141a6565b602082019050919050565b6000602082019050818103600083015261420b816141cf565b9050919050565b7f506c656173652070757420612077616c6c657420616464726573730000000000600082015250565b6000614248601b83613d07565b915061425382614212565b602082019050919050565b600060208201905081810360008301526142778161423b565b9050919050565b7f4e487b7100000000000000000000000000000000000000000000000000000000600052604160045260246000fd5b60008190508160005260206000209050919050565b60006020601f8301049050919050565b600082821b905092915050565b60006008830261430f7fffffffffffffffffffffffffffffffffffffffffffffffffffffffffffffffff826142d2565b61431986836142d2565b95508019841693508086168417925050509392505050565b6000819050919050565b600061435661435161434c84613c73565b614331565b613c73565b9050919050565b6000819050919050565b6143708361433b565b61438461437c8261435d565b8484546142df565b825550505050565b600090565b61439961438c565b6143a4818484614367565b505050565b5b818110156143c8576143bd600082614391565b6001810190506143aa565b5050565b601f82111561440d576143de816142ad565b6143e7846142c2565b810160208510156143f6578190505b61440a614402856142c2565b8301826143a9565b50505b505050565b600082821c905092915050565b600061443060001984600802614412565b1980831691505092915050565b6000614449838361441f565b9150826002028217905092915050565b61446282613cfc565b67ffffffffffffffff81111561447b5761447a61427e565b5b6144858254614109565b6144908282856143cc565b600060209050601f8311600181146144c357600084156144b1578287015190505b6144bb858261443d565b865550614523565b601f1984166144d1866142ad565b60005b828110156144f9578489015182556001820191506020850194506020810190506144d4565b868310156145165784890151614512601f89168261441f565b8355505b6001600288020188555050505b505050505050565b7f4e487b7100000000000000000000000000000000000000000000000000000000600052601160045260246000fd5b600061456582613c73565b915061457083613c73565b92508282019050808211156145885761458761452b565b5b92915050565b7f596f7572206163636f756e74207365637265742c20646f206e6f74207368617260008201527f65207769746820616e796f6e6500000000000000000000000000000000000000602082015250565b60006145ea602d83613d07565b91506145f58261458e565b604082019050919050565b60006040820190506146156000830184613e13565b8181036020830152614626816145dd565b905092915050565b7f5265636970656e7420646f206e6f742068617665206163636f756e74206f706560008201527f6e65640000000000000000000000000000000000000000000000000000000000602082015250565b600061468a602383613d07565b91506146958261462e565b604082019050919050565b600060208201905081810360008301526146b98161467d565b9050919050565b7f5265636970656e74206163636f756e74206973206e6f7420616374697665207260008201527f69676874206e6f77000000000000000000000000000000000000000000000000602082015250565b600061471c602883613d07565b9150614727826146c0565b604082019050919050565b6000602082019050818103600083015261474b8161470f565b9050919050565b600061475d82613c73565b915061476883613c73565b92508282039050818111156147805761477f61452b565b5b92915050565b7f596f7520686176652070757420696e76616c6964206163636f756e742073656360008201527f72657420616e642077616c6c6574416464726573730000000000000000000000602082015250565b60006147e2603583613d07565b91506147ed82614786565b604082019050919050565b60006020820190508181036000830152614811816147d5565b9050919050565b7f596f7520646f206e6f742068617665206163636f756e74206f70656e65640000600082015250565b600061484e601e83613d07565b915061485982614818565b602082019050919050565b6000602082019050818103600083015261487d81614841565b9050919050565b7f416d6f756e742061746c65617420323020776569206f72206d6f72652074686160008201527f6e20746861740000000000000000000000000000000000000000000000000000602082015250565b60006148e0602683613d07565b91506148eb82614884565b604082019050919050565b6000602082019050818103600083015261490f816148d3565b9050919050565b60008160601b9050919050565b600061492e82614916565b9050919050565b600061494082614923565b9050919050565b61495861495382613c08565b614935565b82525050565b600081905092915050565b600061497482613cfc565b61497e818561495e565b935061498e818560208601613d18565b80840191505092915050565b6000819050919050565b6149b56149b082613c73565b61499a565b82525050565b60006149c78287614947565b6014820191506149d78286614969565b91506149e382856149a4565b6020820191506149f382846149a4565b60208201915081905095945050505050565b7f416d6f756e742061746c65617420313020776569206f72206d6f72652074686160008201527f6e207468617420616e642073686f756c64206e6f74206265206772656174657260208201527f207468616e203520657468657200000000000000000000000000000000000000604082015250565b6000614a87604d83613d07565b9150614a9282614a05565b606082019050919050565b60006020820190508181036000830152614ab681614a7a565b9050919050565b7f496e7075742062616c616e6365206d75737420626520736d616c6c657220746860008201527f616e20796f7572206163636f756e742062616c616e6365000000000000000000602082015250565b6000614b19603783613d07565b9150614b2482614abd565b604082019050919050565b60006020820190508181036000830152614b4881614b0c565b9050919050565b7f4e487b7100000000000000000000000000000000000000000000000000000000600052601260045260246000fd5b6000614b8982613c73565b9150614b9483613c73565b925082614ba457614ba3614b4f565b5b828206905092915050565b600061ffff82169050919050565b60008160f01b9050919050565b6000614bd582614bbd565b9050919050565b614bed614be882614baf565b614bca565b82525050565b6000614bff8287614bdc565b600282019150614c0f8286614bdc565b600282019150614c1f8285614bdc565b600282019150614c2f8284614947565b60148201915081905095945050505050565b6000614c4d82866149a4565b602082019150614c5d82856149a4565b602082019150614c6d8284614947565b601482019150819050949350505050565b6000614c8a82846149a4565b6020820191508190509291505056fea2646970667358221220e604910789b714eb4708fe11d004d84df7f446aa1a89a1cea2700c32465a694b64736f6c63430008130033",
  "linkReferences": {},
  "deployedLinkReferences": {}
}